{
  "contractName": "ArtMarketplace",
  "abi": [
    {
      "inputs": [
        {
          "internalType": "contract ArtToken",
          "name": "_token",
          "type": "address"
        }
      ],
      "stateMutability": "nonpayable",
      "type": "constructor"
    },
    {
      "anonymous": false,
      "inputs": [
        {
          "indexed": false,
          "internalType": "uint256",
          "name": "id",
          "type": "uint256"
        },
        {
          "indexed": false,
          "internalType": "uint256",
          "name": "tokenId",
          "type": "uint256"
        },
        {
          "indexed": false,
          "internalType": "uint256",
          "name": "price",
          "type": "uint256"
        }
      ],
      "name": "itemAddedForSale",
      "type": "event"
    },
    {
      "anonymous": false,
      "inputs": [
        {
          "indexed": false,
          "internalType": "uint256",
          "name": "id",
          "type": "uint256"
        },
        {
          "indexed": false,
          "internalType": "address",
          "name": "buyer",
          "type": "address"
        },
        {
          "indexed": false,
          "internalType": "uint256",
          "name": "price",
          "type": "uint256"
        }
      ],
      "name": "itemSold",
      "type": "event"
    },
    {
      "inputs": [
        {
          "internalType": "uint256",
          "name": "",
          "type": "uint256"
        }
      ],
      "name": "activeItems",
      "outputs": [
        {
          "internalType": "bool",
          "name": "",
          "type": "bool"
        }
      ],
      "stateMutability": "view",
      "type": "function",
      "constant": true
    },
    {
      "inputs": [
        {
          "internalType": "uint256",
          "name": "",
          "type": "uint256"
        }
      ],
      "name": "itemsForSale",
      "outputs": [
        {
          "internalType": "uint256",
          "name": "id",
          "type": "uint256"
        },
        {
          "internalType": "uint256",
          "name": "tokenId",
          "type": "uint256"
        },
        {
          "internalType": "address payable",
          "name": "seller",
          "type": "address"
        },
        {
          "internalType": "uint256",
          "name": "price",
          "type": "uint256"
        },
        {
          "internalType": "bool",
          "name": "isSold",
          "type": "bool"
        }
      ],
      "stateMutability": "view",
      "type": "function",
      "constant": true
    },
    {
      "inputs": [
        {
          "internalType": "uint256",
          "name": "tokenId",
          "type": "uint256"
        },
        {
          "internalType": "uint256",
          "name": "price",
          "type": "uint256"
        }
      ],
      "name": "putItemForSale",
      "outputs": [
        {
          "internalType": "uint256",
          "name": "",
          "type": "uint256"
        }
      ],
      "stateMutability": "nonpayable",
      "type": "function"
    },
    {
      "inputs": [
        {
          "internalType": "uint256",
          "name": "id",
          "type": "uint256"
        }
      ],
      "name": "buyItem",
      "outputs": [],
      "stateMutability": "payable",
      "type": "function",
      "payable": true
    },
    {
      "inputs": [],
      "name": "totalItemsForSale",
      "outputs": [
        {
          "internalType": "uint256",
          "name": "",
          "type": "uint256"
        }
      ],
      "stateMutability": "view",
      "type": "function",
      "constant": true
    },
    {
      "inputs": [
        {
          "internalType": "string",
          "name": "uri",
          "type": "string"
        }
      ],
      "name": "mint",
      "outputs": [
        {
          "internalType": "uint256",
          "name": "",
          "type": "uint256"
        }
      ],
      "stateMutability": "nonpayable",
      "type": "function"
    },
    {
      "inputs": [
        {
          "internalType": "address",
          "name": "operator",
          "type": "address"
        },
        {
          "internalType": "address",
          "name": "from",
          "type": "address"
        },
        {
          "internalType": "uint256",
          "name": "tokenId",
          "type": "uint256"
        },
        {
          "internalType": "bytes",
          "name": "data",
          "type": "bytes"
        }
      ],
      "name": "onERC721Received",
      "outputs": [
        {
          "internalType": "bytes4",
          "name": "",
          "type": "bytes4"
        }
      ],
      "stateMutability": "nonpayable",
      "type": "function"
    }
  ],
  "bytecode": "0x60806040523480156200001157600080fd5b50604051620018f1380380620018f18339818101604052810190620000379190620000fc565b806000806101000a81548173ffffffffffffffffffffffffffffffffffffffff021916908373ffffffffffffffffffffffffffffffffffffffff160217905550506200012e565b600080fd5b600073ffffffffffffffffffffffffffffffffffffffff82169050919050565b6000620000b08262000083565b9050919050565b6000620000c482620000a3565b9050919050565b620000d681620000b7565b8114620000e257600080fd5b50565b600081519050620000f681620000cb565b92915050565b6000602082840312156200011557620001146200007e565b5b60006200012584828501620000e5565b91505092915050565b6117b3806200013e6000396000f3fe60806040526004361061008d576000357c010000000000000000000000000000000000000000000000000000000090048063d85d3d271161006b578063d85d3d271461014d578063e7fb74c71461018a578063ec8120c9146101a6578063f4f35764146101d15761008d565b8063092d0afc14610092578063150b7a02146100d35780639c318c7b14610110575b600080fd5b34801561009e57600080fd5b506100b960048036038101906100b49190610dea565b61020e565b6040516100ca959493929190610e82565b60405180910390f35b3480156100df57600080fd5b506100fa60048036038101906100f59190610f78565b610281565b604051610107919061103b565b60405180910390f35b34801561011c57600080fd5b5061013760048036038101906101329190610dea565b6102b2565b6040516101449190611056565b60405180910390f35b34801561015957600080fd5b50610174600480360381019061016f91906111b2565b6102d2565b60405161018191906111fb565b60405180910390f35b6101a4600480360381019061019f9190610dea565b610394565b005b3480156101b257600080fd5b506101bb610944565b6040516101c891906111fb565b60405180910390f35b3480156101dd57600080fd5b506101f860048036038101906101f39190611216565b610951565b60405161020591906111fb565b60405180910390f35b6001818154811061021e57600080fd5b90600052602060002090600502016000915090508060000154908060010154908060020160009054906101000a900473ffffffffffffffffffffffffffffffffffffffff16908060030154908060040160009054906101000a900460ff16905085565b600063150b7a027c010000000000000000000000000000000000000000000000000000000002905095945050505050565b60026020528060005260406000206000915054906101000a900460ff1681565b60008060009054906101000a900473ffffffffffffffffffffffffffffffffffffffff1673ffffffffffffffffffffffffffffffffffffffff1663d85d3d27836040518263ffffffff167c010000000000000000000000000000000000000000000000000000000002815260040161034a91906112de565b6020604051808303816000875af1158015610369573d6000803e3d6000fd5b505050506040513d601f19601f8201168201806040525081019061038d9190611315565b9050919050565b80600180549050811080156103cd575080600182815481106103b9576103b8611342565b5b906000526020600020906005020160000154145b61040c576040517f08c379a0000000000000000000000000000000000000000000000000000000008152600401610403906113bd565b60405180910390fd5b816001818154811061042157610420611342565b5b906000526020600020906005020160040160009054906101000a900460ff1615610480576040517f08c379a000000000000000000000000000000000000000000000000000000000815260040161047790611429565b60405180910390fd5b6001838154811061049457610493611342565b5b9060005260206000209060050201600101543073ffffffffffffffffffffffffffffffffffffffff1660008054906101000a900473ffffffffffffffffffffffffffffffffffffffff1673ffffffffffffffffffffffffffffffffffffffff1663081812fc836040518263ffffffff167c010000000000000000000000000000000000000000000000000000000002815260040161053291906111fb565b602060405180830381865afa15801561054f573d6000803e3d6000fd5b505050506040513d601f19601f82011682018060405250810190610573919061145e565b73ffffffffffffffffffffffffffffffffffffffff16146105c9576040517f08c379a00000000000000000000000000000000000000000000000000000000081526004016105c0906114d7565b60405180910390fd5b600184815481106105dd576105dc611342565b5b906000526020600020906005020160030154341015610631576040517f08c379a000000000000000000000000000000000000000000000000000000000815260040161062890611543565b60405180910390fd5b6001848154811061064557610644611342565b5b906000526020600020906005020160020160009054906101000a900473ffffffffffffffffffffffffffffffffffffffff1673ffffffffffffffffffffffffffffffffffffffff163373ffffffffffffffffffffffffffffffffffffffff1614156106af57600080fd5b60018085815481106106c4576106c3611342565b5b906000526020600020906005020160040160006101000a81548160ff0219169083151502179055506000600260006001878154811061070657610705611342565b5b906000526020600020906005020160010154815260200190815260200160002060006101000a81548160ff02191690831515021790555060008054906101000a900473ffffffffffffffffffffffffffffffffffffffff1673ffffffffffffffffffffffffffffffffffffffff166342842e0e6001868154811061078d5761078c611342565b5b906000526020600020906005020160020160009054906101000a900473ffffffffffffffffffffffffffffffffffffffff1633600188815481106107d4576107d3611342565b5b9060005260206000209060050201600101546040518463ffffffff167c0100000000000000000000000000000000000000000000000000000000028152600401610820939291906115d1565b600060405180830381600087803b15801561083a57600080fd5b505af115801561084e573d6000803e3d6000fd5b505050506001848154811061086657610865611342565b5b906000526020600020906005020160020160009054906101000a900473ffffffffffffffffffffffffffffffffffffffff1673ffffffffffffffffffffffffffffffffffffffff166108fc349081150290604051600060405180830381858888f193505050501580156108dd573d6000803e3d6000fd5b507f8164c6f8917e418c49813e4586897c7067de5a886aa1bea980cd11fa57d4826484336001878154811061091557610914611342565b5b90600052602060002090600502016003015460405161093693929190611608565b60405180910390a150505050565b6000600180549050905090565b6000823373ffffffffffffffffffffffffffffffffffffffff1660008054906101000a900473ffffffffffffffffffffffffffffffffffffffff1673ffffffffffffffffffffffffffffffffffffffff16636352211e836040518263ffffffff167c01000000000000000000000000000000000000000000000000000000000281526004016109e091906111fb565b602060405180830381865afa1580156109fd573d6000803e3d6000fd5b505050506040513d601f19601f82011682018060405250810190610a21919061145e565b73ffffffffffffffffffffffffffffffffffffffff1614610a77576040517f08c379a0000000000000000000000000000000000000000000000000000000008152600401610a6e9061168b565b60405180910390fd5b833073ffffffffffffffffffffffffffffffffffffffff1660008054906101000a900473ffffffffffffffffffffffffffffffffffffffff1673ffffffffffffffffffffffffffffffffffffffff1663081812fc836040518263ffffffff167c0100000000000000000000000000000000000000000000000000000000028152600401610b0491906111fb565b602060405180830381865afa158015610b21573d6000803e3d6000fd5b505050506040513d601f19601f82011682018060405250810190610b45919061145e565b73ffffffffffffffffffffffffffffffffffffffff1614610b9b576040517f08c379a0000000000000000000000000000000000000000000000000000000008152600401610b92906114d7565b60405180910390fd5b6002600086815260200190815260200160002060009054906101000a900460ff1615610bfc576040517f08c379a0000000000000000000000000000000000000000000000000000000008152600401610bf3906116f7565b60405180910390fd5b6000600180549050905060016040518060a001604052808381526020018881526020013373ffffffffffffffffffffffffffffffffffffffff168152602001878152602001600015158152509080600181540180825580915050600190039060005260206000209060050201600090919091909150600082015181600001556020820151816001015560408201518160020160006101000a81548173ffffffffffffffffffffffffffffffffffffffff021916908373ffffffffffffffffffffffffffffffffffffffff1602179055506060820151816003015560808201518160040160006101000a81548160ff021916908315150217905550505060016002600088815260200190815260200160002060006101000a81548160ff0219169083151502179055508060018281548110610d3957610d38611342565b5b90600052602060002090600502016000015414610d5957610d58611717565b5b7fafd8780f802588de8705083b0f6a33ac59b8d0228c80f9babe0549c1621c33f8818787604051610d8c93929190611746565b60405180910390a180935050505092915050565b6000604051905090565b600080fd5b600080fd5b6000819050919050565b610dc781610db4565b8114610dd257600080fd5b50565b600081359050610de481610dbe565b92915050565b600060208284031215610e0057610dff610daa565b5b6000610e0e84828501610dd5565b91505092915050565b610e2081610db4565b82525050565b600073ffffffffffffffffffffffffffffffffffffffff82169050919050565b6000610e5182610e26565b9050919050565b610e6181610e46565b82525050565b60008115159050919050565b610e7c81610e67565b82525050565b600060a082019050610e976000830188610e17565b610ea46020830187610e17565b610eb16040830186610e58565b610ebe6060830185610e17565b610ecb6080830184610e73565b9695505050505050565b6000610ee082610e26565b9050919050565b610ef081610ed5565b8114610efb57600080fd5b50565b600081359050610f0d81610ee7565b92915050565b600080fd5b600080fd5b600080fd5b60008083601f840112610f3857610f37610f13565b5b8235905067ffffffffffffffff811115610f5557610f54610f18565b5b602083019150836001820283011115610f7157610f70610f1d565b5b9250929050565b600080600080600060808688031215610f9457610f93610daa565b5b6000610fa288828901610efe565b9550506020610fb388828901610efe565b9450506040610fc488828901610dd5565b935050606086013567ffffffffffffffff811115610fe557610fe4610daf565b5b610ff188828901610f22565b92509250509295509295909350565b60007fffffffff0000000000000000000000000000000000000000000000000000000082169050919050565b61103581611000565b82525050565b6000602082019050611050600083018461102c565b92915050565b600060208201905061106b6000830184610e73565b92915050565b600080fd5b6000601f19601f8301169050919050565b7f4e487b7100000000000000000000000000000000000000000000000000000000600052604160045260246000fd5b6110bf82611076565b810181811067ffffffffffffffff821117156110de576110dd611087565b5b80604052505050565b60006110f1610da0565b90506110fd82826110b6565b919050565b600067ffffffffffffffff82111561111d5761111c611087565b5b61112682611076565b9050602081019050919050565b82818337600083830152505050565b600061115561115084611102565b6110e7565b90508281526020810184848401111561117157611170611071565b5b61117c848285611133565b509392505050565b600082601f83011261119957611198610f13565b5b81356111a9848260208601611142565b91505092915050565b6000602082840312156111c8576111c7610daa565b5b600082013567ffffffffffffffff8111156111e6576111e5610daf565b5b6111f284828501611184565b91505092915050565b60006020820190506112106000830184610e17565b92915050565b6000806040838503121561122d5761122c610daa565b5b600061123b85828601610dd5565b925050602061124c85828601610dd5565b9150509250929050565b600081519050919050565b600082825260208201905092915050565b60005b83811015611290578082015181840152602081019050611275565b8381111561129f576000848401525b50505050565b60006112b082611256565b6112ba8185611261565b93506112ca818560208601611272565b6112d381611076565b840191505092915050565b600060208201905081810360008301526112f881846112a5565b905092915050565b60008151905061130f81610dbe565b92915050565b60006020828403121561132b5761132a610daa565b5b600061133984828501611300565b91505092915050565b7f4e487b7100000000000000000000000000000000000000000000000000000000600052603260045260246000fd5b7f436f756c64206e6f742066696e64206974656d00000000000000000000000000600082015250565b60006113a7601383611261565b91506113b282611371565b602082019050919050565b600060208201905081810360008301526113d68161139a565b9050919050565b7f4974656d20697320616c726561647920736f6c64000000000000000000000000600082015250565b6000611413601483611261565b915061141e826113dd565b602082019050919050565b6000602082019050818103600083015261144281611406565b9050919050565b60008151905061145881610ee7565b92915050565b60006020828403121561147457611473610daa565b5b600061148284828501611449565b91505092915050565b7f4d61726b6574206973206e6f7420617070726f76656400000000000000000000600082015250565b60006114c1601683611261565b91506114cc8261148b565b602082019050919050565b600060208201905081810360008301526114f0816114b4565b9050919050565b7f4e6f7420656e6f7567682066756e64732073656e740000000000000000000000600082015250565b600061152d601583611261565b9150611538826114f7565b602082019050919050565b6000602082019050818103600083015261155c81611520565b9050919050565b6000819050919050565b600061158861158361157e84610e26565b611563565b610e26565b9050919050565b600061159a8261156d565b9050919050565b60006115ac8261158f565b9050919050565b6115bc816115a1565b82525050565b6115cb81610ed5565b82525050565b60006060820190506115e660008301866115b3565b6115f360208301856115c2565b6116006040830184610e17565b949350505050565b600060608201905061161d6000830186610e17565b61162a60208301856115c2565b6116376040830184610e17565b949350505050565b7f53656e64657220646f6573206e6f74206f776e20746865206974656d00000000600082015250565b6000611675601c83611261565b91506116808261163f565b602082019050919050565b600060208201905081810360008301526116a481611668565b9050919050565b7f4974656d20697320616c726561647920757020666f722073616c650000000000600082015250565b60006116e1601b83611261565b91506116ec826116ab565b602082019050919050565b60006020820190508181036000830152611710816116d4565b9050919050565b7f4e487b7100000000000000000000000000000000000000000000000000000000600052600160045260246000fd5b600060608201905061175b6000830186610e17565b6117686020830185610e17565b6117756040830184610e17565b94935050505056fea2646970667358221220ecfe5cde62ac27d87d7bc47ba449b170b11edf1a47df64148dfbf31dc900781c64736f6c634300080b0033",
  "immutableReferences": {},
  "source": "// SPDX-License-Identifier: MIT\npragma solidity ^0.8.0;\n\nimport \"./ArtToken.sol\";\n\ncontract ArtMarketplace {\n  ArtToken private token;\n\n  struct ItemForSale {\n    uint256 id;\n    uint256 tokenId;\n    address payable seller;\n    uint256 price;\n    bool isSold;\n  }\n\n  ItemForSale[] public itemsForSale;\n  mapping(uint256 => bool) public activeItems; // tokenId => ativo?\n\n  event itemAddedForSale(uint256 id, uint256 tokenId, uint256 price);\n  event itemSold(uint256 id, address buyer, uint256 price);\n\n  constructor(ArtToken _token) {\n      token = _token;\n  }\n\n  modifier OnlyItemOwner(uint256 tokenId){\n    require(token.ownerOf(tokenId) == msg.sender, \"Sender does not own the item\");\n    _;\n  }\n\n  modifier HasTransferApproval(uint256 tokenId){\n    require(token.getApproved(tokenId) == address(this), \"Market is not approved\");\n    _;\n  }\n\n  modifier ItemExists(uint256 id){\n    require(id < itemsForSale.length && itemsForSale[id].id == id, \"Could not find item\");\n    _;\n  }\n\n  modifier IsForSale(uint256 id){\n    require(!itemsForSale[id].isSold, \"Item is already sold\");\n    _;\n  }\n\n  function putItemForSale(uint256 tokenId, uint256 price) \n    OnlyItemOwner(tokenId) \n    HasTransferApproval(tokenId) \n    external \n    returns (uint256){\n      require(!activeItems[tokenId], \"Item is already up for sale\");\n\n      uint256 newItemId = itemsForSale.length;\n      itemsForSale.push(ItemForSale({\n        id: newItemId,\n        tokenId: tokenId,\n        seller: payable(msg.sender),\n        price: price,\n        isSold: false\n      }));\n      activeItems[tokenId] = true;\n\n      assert(itemsForSale[newItemId].id == newItemId);\n      emit itemAddedForSale(newItemId, tokenId, price);\n      return newItemId;\n  }\n\n  function buyItem(uint256 id) \n    ItemExists(id)\n    IsForSale(id)\n    HasTransferApproval(itemsForSale[id].tokenId)\n    payable \n    external {\n      require(msg.value >= itemsForSale[id].price, \"Not enough funds sent\");\n      require(msg.sender != itemsForSale[id].seller);\n\n      itemsForSale[id].isSold = true;\n      activeItems[itemsForSale[id].tokenId] = false;\n      token.safeTransferFrom(itemsForSale[id].seller, msg.sender, itemsForSale[id].tokenId);\n      itemsForSale[id].seller.transfer(msg.value);\n\n      emit itemSold(id, msg.sender, itemsForSale[id].price);\n    }\n\n  function totalItemsForSale() external view returns(uint256) {\n    return itemsForSale.length;\n  }\n  \n  function mint(string memory uri) public returns (uint256){\n    return token.mint(uri);\n  }\n\n  function onERC721Received( address operator, address from, uint256 tokenId, bytes calldata data) external returns (bytes4){\n    return this.onERC721Received.selector;\n  }\n}\n\n//TODO:\n// - don't support bidding\n// - the user can't withdraw the item\n",
  "sourcePath": "C:\\Truffle\\contracts\\ArtMarketplace.sol",
  "compiler": {
    "name": "solc",
    "version": "0.8.11+commit.d7f03943.Emscripten.clang"
  },
  "schemaVersion": "3.4.4",
  "updatedAt": "2022-01-20T02:10:52.162Z",
  "networkType": "ethereum",
  "devdoc": {
    "kind": "dev",
    "methods": {},
    "version": 1
  },
  "userdoc": {
    "kind": "user",
    "methods": {},
    "version": 1
  }
}