{
  "contractName": "ArtToken",
  "abi": [
    {
      "inputs": [],
      "stateMutability": "nonpayable",
      "type": "constructor"
    },
    {
      "anonymous": false,
      "inputs": [
        {
          "indexed": true,
          "internalType": "address",
          "name": "owner",
          "type": "address"
        },
        {
          "indexed": true,
          "internalType": "address",
          "name": "approved",
          "type": "address"
        },
        {
          "indexed": true,
          "internalType": "uint256",
          "name": "tokenId",
          "type": "uint256"
        }
      ],
      "name": "Approval",
      "type": "event"
    },
    {
      "anonymous": false,
      "inputs": [
        {
          "indexed": true,
          "internalType": "address",
          "name": "owner",
          "type": "address"
        },
        {
          "indexed": true,
          "internalType": "address",
          "name": "operator",
          "type": "address"
        },
        {
          "indexed": false,
          "internalType": "bool",
          "name": "approved",
          "type": "bool"
        }
      ],
      "name": "ApprovalForAll",
      "type": "event"
    },
    {
      "anonymous": false,
      "inputs": [
        {
          "indexed": true,
          "internalType": "address",
          "name": "from",
          "type": "address"
        },
        {
          "indexed": true,
          "internalType": "address",
          "name": "to",
          "type": "address"
        },
        {
          "indexed": true,
          "internalType": "uint256",
          "name": "tokenId",
          "type": "uint256"
        }
      ],
      "name": "Transfer",
      "type": "event"
    },
    {
      "inputs": [
        {
          "internalType": "uint256",
          "name": "",
          "type": "uint256"
        }
      ],
      "name": "Items",
      "outputs": [
        {
          "internalType": "uint256",
          "name": "id",
          "type": "uint256"
        },
        {
          "internalType": "address",
          "name": "creator",
          "type": "address"
        },
        {
          "internalType": "string",
          "name": "uri",
          "type": "string"
        }
      ],
      "stateMutability": "view",
      "type": "function"
    },
    {
      "inputs": [
        {
          "internalType": "address",
          "name": "to",
          "type": "address"
        },
        {
          "internalType": "uint256",
          "name": "tokenId",
          "type": "uint256"
        }
      ],
      "name": "approve",
      "outputs": [],
      "stateMutability": "nonpayable",
      "type": "function"
    },
    {
      "inputs": [
        {
          "internalType": "address",
          "name": "owner",
          "type": "address"
        }
      ],
      "name": "balanceOf",
      "outputs": [
        {
          "internalType": "uint256",
          "name": "",
          "type": "uint256"
        }
      ],
      "stateMutability": "view",
      "type": "function"
    },
    {
      "inputs": [
        {
          "internalType": "uint256",
          "name": "tokenId",
          "type": "uint256"
        }
      ],
      "name": "getApproved",
      "outputs": [
        {
          "internalType": "address",
          "name": "",
          "type": "address"
        }
      ],
      "stateMutability": "view",
      "type": "function"
    },
    {
      "inputs": [
        {
          "internalType": "address",
          "name": "owner",
          "type": "address"
        },
        {
          "internalType": "address",
          "name": "operator",
          "type": "address"
        }
      ],
      "name": "isApprovedForAll",
      "outputs": [
        {
          "internalType": "bool",
          "name": "",
          "type": "bool"
        }
      ],
      "stateMutability": "view",
      "type": "function"
    },
    {
      "inputs": [],
      "name": "marketplace",
      "outputs": [
        {
          "internalType": "address",
          "name": "",
          "type": "address"
        }
      ],
      "stateMutability": "view",
      "type": "function"
    },
    {
      "inputs": [],
      "name": "name",
      "outputs": [
        {
          "internalType": "string",
          "name": "",
          "type": "string"
        }
      ],
      "stateMutability": "view",
      "type": "function"
    },
    {
      "inputs": [
        {
          "internalType": "uint256",
          "name": "tokenId",
          "type": "uint256"
        }
      ],
      "name": "ownerOf",
      "outputs": [
        {
          "internalType": "address",
          "name": "",
          "type": "address"
        }
      ],
      "stateMutability": "view",
      "type": "function"
    },
    {
      "inputs": [
        {
          "internalType": "address",
          "name": "from",
          "type": "address"
        },
        {
          "internalType": "address",
          "name": "to",
          "type": "address"
        },
        {
          "internalType": "uint256",
          "name": "tokenId",
          "type": "uint256"
        }
      ],
      "name": "safeTransferFrom",
      "outputs": [],
      "stateMutability": "nonpayable",
      "type": "function"
    },
    {
      "inputs": [
        {
          "internalType": "address",
          "name": "from",
          "type": "address"
        },
        {
          "internalType": "address",
          "name": "to",
          "type": "address"
        },
        {
          "internalType": "uint256",
          "name": "tokenId",
          "type": "uint256"
        },
        {
          "internalType": "bytes",
          "name": "_data",
          "type": "bytes"
        }
      ],
      "name": "safeTransferFrom",
      "outputs": [],
      "stateMutability": "nonpayable",
      "type": "function"
    },
    {
      "inputs": [
        {
          "internalType": "address",
          "name": "operator",
          "type": "address"
        },
        {
          "internalType": "bool",
          "name": "approved",
          "type": "bool"
        }
      ],
      "name": "setApprovalForAll",
      "outputs": [],
      "stateMutability": "nonpayable",
      "type": "function"
    },
    {
      "inputs": [
        {
          "internalType": "bytes4",
          "name": "interfaceId",
          "type": "bytes4"
        }
      ],
      "name": "supportsInterface",
      "outputs": [
        {
          "internalType": "bool",
          "name": "",
          "type": "bool"
        }
      ],
      "stateMutability": "view",
      "type": "function"
    },
    {
      "inputs": [],
      "name": "symbol",
      "outputs": [
        {
          "internalType": "string",
          "name": "",
          "type": "string"
        }
      ],
      "stateMutability": "view",
      "type": "function"
    },
    {
      "inputs": [
        {
          "internalType": "uint256",
          "name": "index",
          "type": "uint256"
        }
      ],
      "name": "tokenByIndex",
      "outputs": [
        {
          "internalType": "uint256",
          "name": "",
          "type": "uint256"
        }
      ],
      "stateMutability": "view",
      "type": "function"
    },
    {
      "inputs": [
        {
          "internalType": "address",
          "name": "owner",
          "type": "address"
        },
        {
          "internalType": "uint256",
          "name": "index",
          "type": "uint256"
        }
      ],
      "name": "tokenOfOwnerByIndex",
      "outputs": [
        {
          "internalType": "uint256",
          "name": "",
          "type": "uint256"
        }
      ],
      "stateMutability": "view",
      "type": "function"
    },
    {
      "inputs": [],
      "name": "totalSupply",
      "outputs": [
        {
          "internalType": "uint256",
          "name": "",
          "type": "uint256"
        }
      ],
      "stateMutability": "view",
      "type": "function"
    },
    {
      "inputs": [
        {
          "internalType": "address",
          "name": "from",
          "type": "address"
        },
        {
          "internalType": "address",
          "name": "to",
          "type": "address"
        },
        {
          "internalType": "uint256",
          "name": "tokenId",
          "type": "uint256"
        }
      ],
      "name": "transferFrom",
      "outputs": [],
      "stateMutability": "nonpayable",
      "type": "function"
    },
    {
      "inputs": [
        {
          "internalType": "string",
          "name": "uri",
          "type": "string"
        }
      ],
      "name": "mint",
      "outputs": [
        {
          "internalType": "uint256",
          "name": "",
          "type": "uint256"
        }
      ],
      "stateMutability": "nonpayable",
      "type": "function"
    },
    {
      "inputs": [
        {
          "internalType": "uint256",
          "name": "tokenId",
          "type": "uint256"
        }
      ],
      "name": "tokenURI",
      "outputs": [
        {
          "internalType": "string",
          "name": "",
          "type": "string"
        }
      ],
      "stateMutability": "view",
      "type": "function"
    },
    {
      "inputs": [
        {
          "internalType": "address",
          "name": "market",
          "type": "address"
        }
      ],
      "name": "setMarketplace",
      "outputs": [],
      "stateMutability": "nonpayable",
      "type": "function"
    }
  ],
  "bytecode": "0x60806040523480156200001157600080fd5b506040518060400160405280600881526020017f417274546f6b656e0000000000000000000000000000000000000000000000008152506040518060400160405280600481526020017f4152544b00000000000000000000000000000000000000000000000000000000815250816000908051906020019062000096929190620000b8565b508060019080519060200190620000af929190620000b8565b505050620001cd565b828054620000c69062000197565b90600052602060002090601f016020900481019282620000ea576000855562000136565b82601f106200010557805160ff191683800117855562000136565b8280016001018555821562000136579182015b828111156200013557825182559160200191906001019062000118565b5b50905062000145919062000149565b5090565b5b80821115620001645760008160009055506001016200014a565b5090565b7f4e487b7100000000000000000000000000000000000000000000000000000000600052602260045260246000fd5b60006002820490506001821680620001b057607f821691505b60208210811415620001c757620001c662000168565b5b50919050565b61318480620001dd6000396000f3fe608060405234801561001057600080fd5b5060043610610149576000357c0100000000000000000000000000000000000000000000000000000000900480636352211e116100ca578063abc8c7af1161008e578063abc8c7af14610386578063b88d4fde146103a4578063c87b56dd146103c0578063d85d3d27146103f0578063e985e9c51461042057610149565b80636352211e146102d057806370a082311461030057806373ad6c2d1461033057806395d89b411461034c578063a22cb4651461036a57610149565b806318160ddd1161011157806318160ddd1461021a57806323b872dd146102385780632f745c591461025457806342842e0e146102845780634f6ccce7146102a057610149565b806301ffc9a71461014e57806306fdde031461017e578063081812fc1461019c578063095ea7b3146101cc57806317b47cc4146101e8575b600080fd5b61016860048036038101906101639190611fc6565b610450565b604051610175919061200e565b60405180910390f35b6101866104ca565b60405161019391906120c2565b60405180910390f35b6101b660048036038101906101b1919061211a565b61055c565b6040516101c39190612188565b60405180910390f35b6101e660048036038101906101e191906121cf565b6105e1565b005b61020260048036038101906101fd919061211a565b6106f9565b6040516102119392919061221e565b60405180910390f35b6102226107cb565b60405161022f919061225c565b60405180910390f35b610252600480360381019061024d9190612277565b6107d8565b005b61026e600480360381019061026991906121cf565b610838565b60405161027b919061225c565b60405180910390f35b61029e60048036038101906102999190612277565b6108dd565b005b6102ba60048036038101906102b5919061211a565b6108fd565b6040516102c7919061225c565b60405180910390f35b6102ea60048036038101906102e5919061211a565b61096e565b6040516102f79190612188565b60405180910390f35b61031a600480360381019061031591906122ca565b610a20565b604051610327919061225c565b60405180910390f35b61034a600480360381019061034591906122ca565b610ad8565b005b610354610b1c565b60405161036191906120c2565b60405180910390f35b610384600480360381019061037f9190612323565b610bae565b005b61038e610bc4565b60405161039b9190612188565b60405180910390f35b6103be60048036038101906103b99190612498565b610bea565b005b6103da60048036038101906103d5919061211a565b610c4c565b6040516103e791906120c2565b60405180910390f35b61040a600480360381019061040591906125bc565b610d3c565b604051610417919061225c565b60405180910390f35b61043a60048036038101906104359190612605565b610e4a565b604051610447919061200e565b60405180910390f35b60007f780e9d63000000000000000000000000000000000000000000000000000000007bffffffffffffffffffffffffffffffffffffffffffffffffffffffff1916827bffffffffffffffffffffffffffffffffffffffffffffffffffffffff191614806104c357506104c282610ede565b5b9050919050565b6060600080546104d990612674565b80601f016020809104026020016040519081016040528092919081815260200182805461050590612674565b80156105525780601f1061052757610100808354040283529160200191610552565b820191906000526020600020905b81548152906001019060200180831161053557829003601f168201915b5050505050905090565b600061056782610fc0565b6105a6576040517f08c379a000000000000000000000000000000000000000000000000000000000815260040161059d90612718565b60405180910390fd5b6004600083815260200190815260200160002060009054906101000a900473ffffffffffffffffffffffffffffffffffffffff169050919050565b60006105ec8261096e565b90508073ffffffffffffffffffffffffffffffffffffffff168373ffffffffffffffffffffffffffffffffffffffff16141561065d576040517f08c379a0000000000000000000000000000000000000000000000000000000008152600401610654906127aa565b60405180910390fd5b8073ffffffffffffffffffffffffffffffffffffffff1661067c61102c565b73ffffffffffffffffffffffffffffffffffffffff1614806106ab57506106aa816106a561102c565b610e4a565b5b6106ea576040517f08c379a00000000000000000000000000000000000000000000000000000000081526004016106e19061283c565b60405180910390fd5b6106f48383611034565b505050565b600c6020528060005260406000206000915090508060000154908060010160009054906101000a900473ffffffffffffffffffffffffffffffffffffffff169080600201805461074890612674565b80601f016020809104026020016040519081016040528092919081815260200182805461077490612674565b80156107c15780601f10610796576101008083540402835291602001916107c1565b820191906000526020600020905b8154815290600101906020018083116107a457829003601f168201915b5050505050905083565b6000600880549050905090565b6107e96107e361102c565b826110ed565b610828576040517f08c379a000000000000000000000000000000000000000000000000000000000815260040161081f906128ce565b60405180910390fd5b6108338383836111cb565b505050565b600061084383610a20565b8210610884576040517f08c379a000000000000000000000000000000000000000000000000000000000815260040161087b90612960565b60405180910390fd5b600660008473ffffffffffffffffffffffffffffffffffffffff1673ffffffffffffffffffffffffffffffffffffffff168152602001908152602001600020600083815260200190815260200160002054905092915050565b6108f883838360405180602001604052806000815250610bea565b505050565b60006109076107cb565b8210610948576040517f08c379a000000000000000000000000000000000000000000000000000000000815260040161093f906129f2565b60405180910390fd5b6008828154811061095c5761095b612a12565b5b90600052602060002001549050919050565b6000806002600084815260200190815260200160002060009054906101000a900473ffffffffffffffffffffffffffffffffffffffff169050600073ffffffffffffffffffffffffffffffffffffffff168173ffffffffffffffffffffffffffffffffffffffff161415610a17576040517f08c379a0000000000000000000000000000000000000000000000000000000008152600401610a0e90612ab3565b60405180910390fd5b80915050919050565b60008073ffffffffffffffffffffffffffffffffffffffff168273ffffffffffffffffffffffffffffffffffffffff161415610a91576040517f08c379a0000000000000000000000000000000000000000000000000000000008152600401610a8890612b45565b60405180910390fd5b600360008373ffffffffffffffffffffffffffffffffffffffff1673ffffffffffffffffffffffffffffffffffffffff168152602001908152602001600020549050919050565b80600b60006101000a81548173ffffffffffffffffffffffffffffffffffffffff021916908373ffffffffffffffffffffffffffffffffffffffff16021790555050565b606060018054610b2b90612674565b80601f0160208091040260200160405190810160405280929190818152602001828054610b5790612674565b8015610ba45780601f10610b7957610100808354040283529160200191610ba4565b820191906000526020600020905b815481529060010190602001808311610b8757829003601f168201915b5050505050905090565b610bc0610bb961102c565b8383611427565b5050565b600b60009054906101000a900473ffffffffffffffffffffffffffffffffffffffff1681565b610bfb610bf561102c565b836110ed565b610c3a576040517f08c379a0000000000000000000000000000000000000000000000000000000008152600401610c31906128ce565b60405180910390fd5b610c4684848484611594565b50505050565b6060610c5782610fc0565b610c96576040517f08c379a0000000000000000000000000000000000000000000000000000000008152600401610c8d90612bd7565b60405180910390fd5b600c60008381526020019081526020016000206002018054610cb790612674565b80601f0160208091040260200160405190810160405280929190818152602001828054610ce390612674565b8015610d305780601f10610d0557610100808354040283529160200191610d30565b820191906000526020600020905b815481529060010190602001808311610d1357829003601f168201915b50505050509050919050565b6000610d48600a6115f0565b6000610d54600a611606565b9050610d603382611614565b610d8c600b60009054906101000a900473ffffffffffffffffffffffffffffffffffffffff16826105e1565b60405180606001604052808281526020013373ffffffffffffffffffffffffffffffffffffffff16815260200184815250600c60008381526020019081526020016000206000820151816000015560208201518160010160006101000a81548173ffffffffffffffffffffffffffffffffffffffff021916908373ffffffffffffffffffffffffffffffffffffffff1602179055506040820151816002019080519060200190610e3d929190611eb7565b5090505080915050919050565b6000600560008473ffffffffffffffffffffffffffffffffffffffff1673ffffffffffffffffffffffffffffffffffffffff16815260200190815260200160002060008373ffffffffffffffffffffffffffffffffffffffff1673ffffffffffffffffffffffffffffffffffffffff16815260200190815260200160002060009054906101000a900460ff16905092915050565b60007f80ac58cd000000000000000000000000000000000000000000000000000000007bffffffffffffffffffffffffffffffffffffffffffffffffffffffff1916827bffffffffffffffffffffffffffffffffffffffffffffffffffffffff19161480610fa957507f5b5e139f000000000000000000000000000000000000000000000000000000007bffffffffffffffffffffffffffffffffffffffffffffffffffffffff1916827bffffffffffffffffffffffffffffffffffffffffffffffffffffffff1916145b80610fb95750610fb882611632565b5b9050919050565b60008073ffffffffffffffffffffffffffffffffffffffff166002600084815260200190815260200160002060009054906101000a900473ffffffffffffffffffffffffffffffffffffffff1673ffffffffffffffffffffffffffffffffffffffff1614159050919050565b600033905090565b816004600083815260200190815260200160002060006101000a81548173ffffffffffffffffffffffffffffffffffffffff021916908373ffffffffffffffffffffffffffffffffffffffff160217905550808273ffffffffffffffffffffffffffffffffffffffff166110a78361096e565b73ffffffffffffffffffffffffffffffffffffffff167f8c5be1e5ebec7d5bd14f71427d1e84f3dd0314c0f7b2291e5b200ac8c7c3b92560405160405180910390a45050565b60006110f882610fc0565b611137576040517f08c379a000000000000000000000000000000000000000000000000000000000815260040161112e90612c69565b60405180910390fd5b60006111428361096e565b90508073ffffffffffffffffffffffffffffffffffffffff168473ffffffffffffffffffffffffffffffffffffffff1614806111b157508373ffffffffffffffffffffffffffffffffffffffff166111998461055c565b73ffffffffffffffffffffffffffffffffffffffff16145b806111c257506111c18185610e4a565b5b91505092915050565b8273ffffffffffffffffffffffffffffffffffffffff166111eb8261096e565b73ffffffffffffffffffffffffffffffffffffffff1614611241576040517f08c379a000000000000000000000000000000000000000000000000000000000815260040161123890612cfb565b60405180910390fd5b600073ffffffffffffffffffffffffffffffffffffffff168273ffffffffffffffffffffffffffffffffffffffff1614156112b1576040517f08c379a00000000000000000000000000000000000000000000000000000000081526004016112a890612d8d565b60405180910390fd5b6112bc83838361169c565b6112c7600082611034565b6001600360008573ffffffffffffffffffffffffffffffffffffffff1673ffffffffffffffffffffffffffffffffffffffff16815260200190815260200160002060008282546113179190612ddc565b925050819055506001600360008473ffffffffffffffffffffffffffffffffffffffff1673ffffffffffffffffffffffffffffffffffffffff168152602001908152602001600020600082825461136e9190612e10565b92505081905550816002600083815260200190815260200160002060006101000a81548173ffffffffffffffffffffffffffffffffffffffff021916908373ffffffffffffffffffffffffffffffffffffffff160217905550808273ffffffffffffffffffffffffffffffffffffffff168473ffffffffffffffffffffffffffffffffffffffff167fddf252ad1be2c89b69c2b068fc378daa952ba7f163c4a11628f55a4df523b3ef60405160405180910390a4505050565b8173ffffffffffffffffffffffffffffffffffffffff168373ffffffffffffffffffffffffffffffffffffffff161415611496576040517f08c379a000000000000000000000000000000000000000000000000000000000815260040161148d90612eb2565b60405180910390fd5b80600560008573ffffffffffffffffffffffffffffffffffffffff1673ffffffffffffffffffffffffffffffffffffffff16815260200190815260200160002060008473ffffffffffffffffffffffffffffffffffffffff1673ffffffffffffffffffffffffffffffffffffffff16815260200190815260200160002060006101000a81548160ff0219169083151502179055508173ffffffffffffffffffffffffffffffffffffffff168373ffffffffffffffffffffffffffffffffffffffff167f17307eab39ab6107e8899845ad3d59bd9653f200f220920489ca2b5937696c3183604051611587919061200e565b60405180910390a3505050565b61159f8484846111cb565b6115ab848484846117b0565b6115ea576040517f08c379a00000000000000000000000000000000000000000000000000000000081526004016115e190612f44565b60405180910390fd5b50505050565b6001816000016000828254019250508190555050565b600081600001549050919050565b61162e828260405180602001604052806000815250611970565b5050565b60007f01ffc9a7000000000000000000000000000000000000000000000000000000007bffffffffffffffffffffffffffffffffffffffffffffffffffffffff1916827bffffffffffffffffffffffffffffffffffffffffffffffffffffffff1916149050919050565b6116a78383836119cb565b600073ffffffffffffffffffffffffffffffffffffffff168373ffffffffffffffffffffffffffffffffffffffff1614156116ea576116e5816119d0565b611729565b8173ffffffffffffffffffffffffffffffffffffffff168373ffffffffffffffffffffffffffffffffffffffff1614611728576117278382611a19565b5b5b600073ffffffffffffffffffffffffffffffffffffffff168273ffffffffffffffffffffffffffffffffffffffff16141561176c5761176781611b86565b6117ab565b8273ffffffffffffffffffffffffffffffffffffffff168273ffffffffffffffffffffffffffffffffffffffff16146117aa576117a98282611c57565b5b5b505050565b60006117d18473ffffffffffffffffffffffffffffffffffffffff16611cd6565b15611963578373ffffffffffffffffffffffffffffffffffffffff1663150b7a026117fa61102c565b8786866040518563ffffffff167c01000000000000000000000000000000000000000000000000000000000281526004016118389493929190612fb9565b6020604051808303816000875af192505050801561187457506040513d601f19601f82011682018060405250810190611871919061301a565b60015b6118f7573d80600081146118a4576040519150601f19603f3d011682016040523d82523d6000602084013e6118a9565b606091505b506000815114156118ef576040517f08c379a00000000000000000000000000000000000000000000000000000000081526004016118e690612f44565b60405180910390fd5b805181602001fd5b63150b7a027c0100000000000000000000000000000000000000000000000000000000027bffffffffffffffffffffffffffffffffffffffffffffffffffffffff1916817bffffffffffffffffffffffffffffffffffffffffffffffffffffffff191614915050611968565b600190505b949350505050565b61197a8383611ce9565b61198760008484846117b0565b6119c6576040517f08c379a00000000000000000000000000000000000000000000000000000000081526004016119bd90612f44565b60405180910390fd5b505050565b505050565b6008805490506009600083815260200190815260200160002081905550600881908060018154018082558091505060019003906000526020600020016000909190919091505550565b60006001611a2684610a20565b611a309190612ddc565b9050600060076000848152602001908152602001600020549050818114611b15576000600660008673ffffffffffffffffffffffffffffffffffffffff1673ffffffffffffffffffffffffffffffffffffffff168152602001908152602001600020600084815260200190815260200160002054905080600660008773ffffffffffffffffffffffffffffffffffffffff1673ffffffffffffffffffffffffffffffffffffffff168152602001908152602001600020600084815260200190815260200160002081905550816007600083815260200190815260200160002081905550505b6007600084815260200190815260200160002060009055600660008573ffffffffffffffffffffffffffffffffffffffff1673ffffffffffffffffffffffffffffffffffffffff16815260200190815260200160002060008381526020019081526020016000206000905550505050565b60006001600880549050611b9a9190612ddc565b9050600060096000848152602001908152602001600020549050600060088381548110611bca57611bc9612a12565b5b906000526020600020015490508060088381548110611bec57611beb612a12565b5b906000526020600020018190555081600960008381526020019081526020016000208190555060096000858152602001908152602001600020600090556008805480611c3b57611c3a613047565b5b6001900381819060005260206000200160009055905550505050565b6000611c6283610a20565b905081600660008573ffffffffffffffffffffffffffffffffffffffff1673ffffffffffffffffffffffffffffffffffffffff168152602001908152602001600020600083815260200190815260200160002081905550806007600084815260200190815260200160002081905550505050565b600080823b905060008111915050919050565b600073ffffffffffffffffffffffffffffffffffffffff168273ffffffffffffffffffffffffffffffffffffffff161415611d59576040517f08c379a0000000000000000000000000000000000000000000000000000000008152600401611d50906130c2565b60405180910390fd5b611d6281610fc0565b15611da2576040517f08c379a0000000000000000000000000000000000000000000000000000000008152600401611d999061312e565b60405180910390fd5b611dae6000838361169c565b6001600360008473ffffffffffffffffffffffffffffffffffffffff1673ffffffffffffffffffffffffffffffffffffffff1681526020019081526020016000206000828254611dfe9190612e10565b92505081905550816002600083815260200190815260200160002060006101000a81548173ffffffffffffffffffffffffffffffffffffffff021916908373ffffffffffffffffffffffffffffffffffffffff160217905550808273ffffffffffffffffffffffffffffffffffffffff16600073ffffffffffffffffffffffffffffffffffffffff167fddf252ad1be2c89b69c2b068fc378daa952ba7f163c4a11628f55a4df523b3ef60405160405180910390a45050565b828054611ec390612674565b90600052602060002090601f016020900481019282611ee55760008555611f2c565b82601f10611efe57805160ff1916838001178555611f2c565b82800160010185558215611f2c579182015b82811115611f2b578251825591602001919060010190611f10565b5b509050611f399190611f3d565b5090565b5b80821115611f56576000816000905550600101611f3e565b5090565b6000604051905090565b600080fd5b600080fd5b60007fffffffff0000000000000000000000000000000000000000000000000000000082169050919050565b611fa381611f6e565b8114611fae57600080fd5b50565b600081359050611fc081611f9a565b92915050565b600060208284031215611fdc57611fdb611f64565b5b6000611fea84828501611fb1565b91505092915050565b60008115159050919050565b61200881611ff3565b82525050565b60006020820190506120236000830184611fff565b92915050565b600081519050919050565b600082825260208201905092915050565b60005b83811015612063578082015181840152602081019050612048565b83811115612072576000848401525b50505050565b6000601f19601f8301169050919050565b600061209482612029565b61209e8185612034565b93506120ae818560208601612045565b6120b781612078565b840191505092915050565b600060208201905081810360008301526120dc8184612089565b905092915050565b6000819050919050565b6120f7816120e4565b811461210257600080fd5b50565b600081359050612114816120ee565b92915050565b6000602082840312156121305761212f611f64565b5b600061213e84828501612105565b91505092915050565b600073ffffffffffffffffffffffffffffffffffffffff82169050919050565b600061217282612147565b9050919050565b61218281612167565b82525050565b600060208201905061219d6000830184612179565b92915050565b6121ac81612167565b81146121b757600080fd5b50565b6000813590506121c9816121a3565b92915050565b600080604083850312156121e6576121e5611f64565b5b60006121f4858286016121ba565b925050602061220585828601612105565b9150509250929050565b612218816120e4565b82525050565b6000606082019050612233600083018661220f565b6122406020830185612179565b81810360408301526122528184612089565b9050949350505050565b6000602082019050612271600083018461220f565b92915050565b6000806000606084860312156122905761228f611f64565b5b600061229e868287016121ba565b93505060206122af868287016121ba565b92505060406122c086828701612105565b9150509250925092565b6000602082840312156122e0576122df611f64565b5b60006122ee848285016121ba565b91505092915050565b61230081611ff3565b811461230b57600080fd5b50565b60008135905061231d816122f7565b92915050565b6000806040838503121561233a57612339611f64565b5b6000612348858286016121ba565b92505060206123598582860161230e565b9150509250929050565b600080fd5b600080fd5b7f4e487b7100000000000000000000000000000000000000000000000000000000600052604160045260246000fd5b6123a582612078565b810181811067ffffffffffffffff821117156123c4576123c361236d565b5b80604052505050565b60006123d7611f5a565b90506123e3828261239c565b919050565b600067ffffffffffffffff8211156124035761240261236d565b5b61240c82612078565b9050602081019050919050565b82818337600083830152505050565b600061243b612436846123e8565b6123cd565b90508281526020810184848401111561245757612456612368565b5b612462848285612419565b509392505050565b600082601f83011261247f5761247e612363565b5b813561248f848260208601612428565b91505092915050565b600080600080608085870312156124b2576124b1611f64565b5b60006124c0878288016121ba565b94505060206124d1878288016121ba565b93505060406124e287828801612105565b925050606085013567ffffffffffffffff81111561250357612502611f69565b5b61250f8782880161246a565b91505092959194509250565b600067ffffffffffffffff8211156125365761253561236d565b5b61253f82612078565b9050602081019050919050565b600061255f61255a8461251b565b6123cd565b90508281526020810184848401111561257b5761257a612368565b5b612586848285612419565b509392505050565b600082601f8301126125a3576125a2612363565b5b81356125b384826020860161254c565b91505092915050565b6000602082840312156125d2576125d1611f64565b5b600082013567ffffffffffffffff8111156125f0576125ef611f69565b5b6125fc8482850161258e565b91505092915050565b6000806040838503121561261c5761261b611f64565b5b600061262a858286016121ba565b925050602061263b858286016121ba565b9150509250929050565b7f4e487b7100000000000000000000000000000000000000000000000000000000600052602260045260246000fd5b6000600282049050600182168061268c57607f821691505b602082108114156126a05761269f612645565b5b50919050565b7f4552433732313a20617070726f76656420717565727920666f72206e6f6e657860008201527f697374656e7420746f6b656e0000000000000000000000000000000000000000602082015250565b6000612702602c83612034565b915061270d826126a6565b604082019050919050565b60006020820190508181036000830152612731816126f5565b9050919050565b7f4552433732313a20617070726f76616c20746f2063757272656e74206f776e6560008201527f7200000000000000000000000000000000000000000000000000000000000000602082015250565b6000612794602183612034565b915061279f82612738565b604082019050919050565b600060208201905081810360008301526127c381612787565b9050919050565b7f4552433732313a20617070726f76652063616c6c6572206973206e6f74206f7760008201527f6e6572206e6f7220617070726f76656420666f7220616c6c0000000000000000602082015250565b6000612826603883612034565b9150612831826127ca565b604082019050919050565b6000602082019050818103600083015261285581612819565b9050919050565b7f4552433732313a207472616e736665722063616c6c6572206973206e6f74206f60008201527f776e6572206e6f7220617070726f766564000000000000000000000000000000602082015250565b60006128b8603183612034565b91506128c38261285c565b604082019050919050565b600060208201905081810360008301526128e7816128ab565b9050919050565b7f455243373231456e756d657261626c653a206f776e657220696e646578206f7560008201527f74206f6620626f756e6473000000000000000000000000000000000000000000602082015250565b600061294a602b83612034565b9150612955826128ee565b604082019050919050565b600060208201905081810360008301526129798161293d565b9050919050565b7f455243373231456e756d657261626c653a20676c6f62616c20696e646578206f60008201527f7574206f6620626f756e64730000000000000000000000000000000000000000602082015250565b60006129dc602c83612034565b91506129e782612980565b604082019050919050565b60006020820190508181036000830152612a0b816129cf565b9050919050565b7f4e487b7100000000000000000000000000000000000000000000000000000000600052603260045260246000fd5b7f4552433732313a206f776e657220717565727920666f72206e6f6e657869737460008201527f656e7420746f6b656e0000000000000000000000000000000000000000000000602082015250565b6000612a9d602983612034565b9150612aa882612a41565b604082019050919050565b60006020820190508181036000830152612acc81612a90565b9050919050565b7f4552433732313a2062616c616e636520717565727920666f7220746865207a6560008201527f726f206164647265737300000000000000000000000000000000000000000000602082015250565b6000612b2f602a83612034565b9150612b3a82612ad3565b604082019050919050565b60006020820190508181036000830152612b5e81612b22565b9050919050565b7f45524337323155524953746f726167653a2055524920717565727920666f722060008201527f6e6f6e6578697374656e7420746f6b656e000000000000000000000000000000602082015250565b6000612bc1603183612034565b9150612bcc82612b65565b604082019050919050565b60006020820190508181036000830152612bf081612bb4565b9050919050565b7f4552433732313a206f70657261746f7220717565727920666f72206e6f6e657860008201527f697374656e7420746f6b656e0000000000000000000000000000000000000000602082015250565b6000612c53602c83612034565b9150612c5e82612bf7565b604082019050919050565b60006020820190508181036000830152612c8281612c46565b9050919050565b7f4552433732313a207472616e73666572206f6620746f6b656e2074686174206960008201527f73206e6f74206f776e0000000000000000000000000000000000000000000000602082015250565b6000612ce5602983612034565b9150612cf082612c89565b604082019050919050565b60006020820190508181036000830152612d1481612cd8565b9050919050565b7f4552433732313a207472616e7366657220746f20746865207a65726f2061646460008201527f7265737300000000000000000000000000000000000000000000000000000000602082015250565b6000612d77602483612034565b9150612d8282612d1b565b604082019050919050565b60006020820190508181036000830152612da681612d6a565b9050919050565b7f4e487b7100000000000000000000000000000000000000000000000000000000600052601160045260246000fd5b6000612de7826120e4565b9150612df2836120e4565b925082821015612e0557612e04612dad565b5b828203905092915050565b6000612e1b826120e4565b9150612e26836120e4565b9250827fffffffffffffffffffffffffffffffffffffffffffffffffffffffffffffffff03821115612e5b57612e5a612dad565b5b828201905092915050565b7f4552433732313a20617070726f766520746f2063616c6c657200000000000000600082015250565b6000612e9c601983612034565b9150612ea782612e66565b602082019050919050565b60006020820190508181036000830152612ecb81612e8f565b9050919050565b7f4552433732313a207472616e7366657220746f206e6f6e20455243373231526560008201527f63656976657220696d706c656d656e7465720000000000000000000000000000602082015250565b6000612f2e603283612034565b9150612f3982612ed2565b604082019050919050565b60006020820190508181036000830152612f5d81612f21565b9050919050565b600081519050919050565b600082825260208201905092915050565b6000612f8b82612f64565b612f958185612f6f565b9350612fa5818560208601612045565b612fae81612078565b840191505092915050565b6000608082019050612fce6000830187612179565b612fdb6020830186612179565b612fe8604083018561220f565b8181036060830152612ffa8184612f80565b905095945050505050565b60008151905061301481611f9a565b92915050565b6000602082840312156130305761302f611f64565b5b600061303e84828501613005565b91505092915050565b7f4e487b7100000000000000000000000000000000000000000000000000000000600052603160045260246000fd5b7f4552433732313a206d696e7420746f20746865207a65726f2061646472657373600082015250565b60006130ac602083612034565b91506130b782613076565b602082019050919050565b600060208201905081810360008301526130db8161309f565b9050919050565b7f4552433732313a20746f6b656e20616c7265616479206d696e74656400000000600082015250565b6000613118601c83612034565b9150613123826130e2565b602082019050919050565b600060208201905081810360008301526131478161310b565b905091905056fea264697066735822122019ea14a4a10e90772b518b4741fb82654970faa98d3732faa5c01132fe51fd1464736f6c634300080b0033",
  "immutableReferences": {},
  "source": "// SPDX-License-Identifier: MIT\npragma solidity ^0.8.0;\n\nimport \"@openzeppelin/contracts/token/ERC721/ERC721.sol\";\nimport \"@openzeppelin/contracts/token/ERC721/extensions/ERC721Enumerable.sol\";\nimport \"@openzeppelin/contracts/token/ERC721/extensions/ERC721URIStorage.sol\";\nimport \"@openzeppelin/contracts/utils/Counters.sol\";\n\ncontract ArtToken is ERC721Enumerable{\n  using Counters for Counters.Counter;\n\n  Counters.Counter private _tokenIds;\n  address public marketplace;\n\n  struct Item {\n    uint256 id;\n    address creator;\n    string uri;//metadata url\n  }\n\n  mapping(uint256 => Item) public Items; //id => Item\n\n  constructor () ERC721(\"ArtToken\", \"ARTK\") {}\n\n  function mint(string memory uri) public returns (uint256){\n    _tokenIds.increment();\n    uint256 newItemId = _tokenIds.current();\n    _safeMint(msg.sender, newItemId);\n    approve(marketplace, newItemId);\n\n    Items[newItemId] = Item({\n      id: newItemId, \n      creator: msg.sender,\n      uri: uri\n    });\n\n    return newItemId;\n  }\n\n  function tokenURI(uint256 tokenId) public view override returns (string memory) {\n    require(_exists(tokenId), \"ERC721URIStorage: URI query for nonexistent token\");\n    return Items[tokenId].uri;\n  }\n\n  function setMarketplace(address market) public {\n    //require(msg.sender ==);\n    marketplace = market;\n  }\n\n}",
  "sourcePath": "C:\\Truffle\\contracts\\ArtToken.sol",
  "compiler": {
    "name": "solc",
    "version": "0.8.11+commit.d7f03943.Emscripten.clang"
  },
  "schemaVersion": "3.4.4",
  "updatedAt": "2022-01-20T02:09:13.866Z",
  "devdoc": {
    "kind": "dev",
    "methods": {
      "approve(address,uint256)": {
        "details": "See {IERC721-approve}."
      },
      "balanceOf(address)": {
        "details": "See {IERC721-balanceOf}."
      },
      "getApproved(uint256)": {
        "details": "See {IERC721-getApproved}."
      },
      "isApprovedForAll(address,address)": {
        "details": "See {IERC721-isApprovedForAll}."
      },
      "name()": {
        "details": "See {IERC721Metadata-name}."
      },
      "ownerOf(uint256)": {
        "details": "See {IERC721-ownerOf}."
      },
      "safeTransferFrom(address,address,uint256)": {
        "details": "See {IERC721-safeTransferFrom}."
      },
      "safeTransferFrom(address,address,uint256,bytes)": {
        "details": "See {IERC721-safeTransferFrom}."
      },
      "setApprovalForAll(address,bool)": {
        "details": "See {IERC721-setApprovalForAll}."
      },
      "supportsInterface(bytes4)": {
        "details": "See {IERC165-supportsInterface}."
      },
      "symbol()": {
        "details": "See {IERC721Metadata-symbol}."
      },
      "tokenByIndex(uint256)": {
        "details": "See {IERC721Enumerable-tokenByIndex}."
      },
      "tokenOfOwnerByIndex(address,uint256)": {
        "details": "See {IERC721Enumerable-tokenOfOwnerByIndex}."
      },
      "tokenURI(uint256)": {
        "details": "See {IERC721Metadata-tokenURI}."
      },
      "totalSupply()": {
        "details": "See {IERC721Enumerable-totalSupply}."
      },
      "transferFrom(address,address,uint256)": {
        "details": "See {IERC721-transferFrom}."
      }
    },
    "version": 1
  },
  "userdoc": {
    "kind": "user",
    "methods": {},
    "version": 1
  }
}